{
    "contractName": "NFTMarketplace",
    "abi": [
        {
            "inputs": [],
            "stateMutability": "nonpayable",
            "type": "constructor"
        },
        {
            "anonymous": false,
            "inputs": [
                {
                    "indexed": true,
                    "internalType": "address",
                    "name": "owner",
                    "type": "address"
                },
                {
                    "indexed": true,
                    "internalType": "address",
                    "name": "approved",
                    "type": "address"
                },
                {
                    "indexed": true,
                    "internalType": "uint256",
                    "name": "tokenId",
                    "type": "uint256"
                }
            ],
            "name": "Approval",
            "type": "event"
        },
        {
            "anonymous": false,
            "inputs": [
                {
                    "indexed": true,
                    "internalType": "address",
                    "name": "owner",
                    "type": "address"
                },
                {
                    "indexed": true,
                    "internalType": "address",
                    "name": "operator",
                    "type": "address"
                },
                {
                    "indexed": false,
                    "internalType": "bool",
                    "name": "approved",
                    "type": "bool"
                }
            ],
            "name": "ApprovalForAll",
            "type": "event"
        },
        {
            "anonymous": false,
            "inputs": [
                {
                    "indexed": true,
                    "internalType": "uint256",
                    "name": "tokenId",
                    "type": "uint256"
                },
                {
                    "indexed": false,
                    "internalType": "address",
                    "name": "seller",
                    "type": "address"
                },
                {
                    "indexed": false,
                    "internalType": "address",
                    "name": "owner",
                    "type": "address"
                },
                {
                    "indexed": false,
                    "internalType": "uint256",
                    "name": "price",
                    "type": "uint256"
                },
                {
                    "indexed": false,
                    "internalType": "bool",
                    "name": "sold",
                    "type": "bool"
                }
            ],
            "name": "MarketItemCreated",
            "type": "event"
        },
        {
            "anonymous": false,
            "inputs": [
                {
                    "indexed": true,
                    "internalType": "address",
                    "name": "from",
                    "type": "address"
                },
                {
                    "indexed": true,
                    "internalType": "address",
                    "name": "to",
                    "type": "address"
                },
                {
                    "indexed": true,
                    "internalType": "uint256",
                    "name": "tokenId",
                    "type": "uint256"
                }
            ],
            "name": "Transfer",
            "type": "event"
        },
        {
            "inputs": [
                {
                    "internalType": "address",
                    "name": "to",
                    "type": "address"
                },
                {
                    "internalType": "uint256",
                    "name": "tokenId",
                    "type": "uint256"
                }
            ],
            "name": "approve",
            "outputs": [],
            "stateMutability": "nonpayable",
            "type": "function"
        },
        {
            "inputs": [
                {
                    "internalType": "address",
                    "name": "owner",
                    "type": "address"
                }
            ],
            "name": "balanceOf",
            "outputs": [
                {
                    "internalType": "uint256",
                    "name": "",
                    "type": "uint256"
                }
            ],
            "stateMutability": "view",
            "type": "function"
        },
        {
            "inputs": [
                {
                    "internalType": "uint256",
                    "name": "tokenId",
                    "type": "uint256"
                }
            ],
            "name": "createMarketSale",
            "outputs": [],
            "stateMutability": "payable",
            "type": "function"
        },
        {
            "inputs": [
                {
                    "internalType": "string",
                    "name": "tokenURI",
                    "type": "string"
                },
                {
                    "internalType": "uint256",
                    "name": "price",
                    "type": "uint256"
                }
            ],
            "name": "createToken",
            "outputs": [
                {
                    "internalType": "uint256",
                    "name": "",
                    "type": "uint256"
                }
            ],
            "stateMutability": "payable",
            "type": "function"
        },
        {
            "inputs": [],
            "name": "fetchItemsListed",
            "outputs": [
                {
                    "components": [
                        {
                            "internalType": "uint256",
                            "name": "tokenId",
                            "type": "uint256"
                        },
                        {
                            "internalType": "address payable",
                            "name": "seller",
                            "type": "address"
                        },
                        {
                            "internalType": "address payable",
                            "name": "owner",
                            "type": "address"
                        },
                        {
                            "internalType": "uint256",
                            "name": "price",
                            "type": "uint256"
                        },
                        {
                            "internalType": "bool",
                            "name": "sold",
                            "type": "bool"
                        }
                    ],
                    "internalType": "struct NFTMarketplace.MarketItem[]",
                    "name": "",
                    "type": "tuple[]"
                }
            ],
            "stateMutability": "view",
            "type": "function"
        },
        {
            "inputs": [],
            "name": "fetchMarketItems",
            "outputs": [
                {
                    "components": [
                        {
                            "internalType": "uint256",
                            "name": "tokenId",
                            "type": "uint256"
                        },
                        {
                            "internalType": "address payable",
                            "name": "seller",
                            "type": "address"
                        },
                        {
                            "internalType": "address payable",
                            "name": "owner",
                            "type": "address"
                        },
                        {
                            "internalType": "uint256",
                            "name": "price",
                            "type": "uint256"
                        },
                        {
                            "internalType": "bool",
                            "name": "sold",
                            "type": "bool"
                        }
                    ],
                    "internalType": "struct NFTMarketplace.MarketItem[]",
                    "name": "",
                    "type": "tuple[]"
                }
            ],
            "stateMutability": "view",
            "type": "function"
        },
        {
            "inputs": [],
            "name": "fetchMyNFTs",
            "outputs": [
                {
                    "components": [
                        {
                            "internalType": "uint256",
                            "name": "tokenId",
                            "type": "uint256"
                        },
                        {
                            "internalType": "address payable",
                            "name": "seller",
                            "type": "address"
                        },
                        {
                            "internalType": "address payable",
                            "name": "owner",
                            "type": "address"
                        },
                        {
                            "internalType": "uint256",
                            "name": "price",
                            "type": "uint256"
                        },
                        {
                            "internalType": "bool",
                            "name": "sold",
                            "type": "bool"
                        }
                    ],
                    "internalType": "struct NFTMarketplace.MarketItem[]",
                    "name": "",
                    "type": "tuple[]"
                }
            ],
            "stateMutability": "view",
            "type": "function"
        },
        {
            "inputs": [
                {
                    "internalType": "uint256",
                    "name": "tokenId",
                    "type": "uint256"
                }
            ],
            "name": "getApproved",
            "outputs": [
                {
                    "internalType": "address",
                    "name": "",
                    "type": "address"
                }
            ],
            "stateMutability": "view",
            "type": "function"
        },
        {
            "inputs": [],
            "name": "getListingPrice",
            "outputs": [
                {
                    "internalType": "uint256",
                    "name": "",
                    "type": "uint256"
                }
            ],
            "stateMutability": "view",
            "type": "function"
        },
        {
            "inputs": [
                {
                    "internalType": "address",
                    "name": "owner",
                    "type": "address"
                },
                {
                    "internalType": "address",
                    "name": "operator",
                    "type": "address"
                }
            ],
            "name": "isApprovedForAll",
            "outputs": [
                {
                    "internalType": "bool",
                    "name": "",
                    "type": "bool"
                }
            ],
            "stateMutability": "view",
            "type": "function"
        },
        {
            "inputs": [],
            "name": "name",
            "outputs": [
                {
                    "internalType": "string",
                    "name": "",
                    "type": "string"
                }
            ],
            "stateMutability": "view",
            "type": "function"
        },
        {
            "inputs": [
                {
                    "internalType": "uint256",
                    "name": "tokenId",
                    "type": "uint256"
                }
            ],
            "name": "ownerOf",
            "outputs": [
                {
                    "internalType": "address",
                    "name": "",
                    "type": "address"
                }
            ],
            "stateMutability": "view",
            "type": "function"
        },
        {
            "inputs": [
                {
                    "internalType": "uint256",
                    "name": "tokenId",
                    "type": "uint256"
                },
                {
                    "internalType": "uint256",
                    "name": "price",
                    "type": "uint256"
                }
            ],
            "name": "resellToken",
            "outputs": [],
            "stateMutability": "payable",
            "type": "function"
        },
        {
            "inputs": [
                {
                    "internalType": "address",
                    "name": "from",
                    "type": "address"
                },
                {
                    "internalType": "address",
                    "name": "to",
                    "type": "address"
                },
                {
                    "internalType": "uint256",
                    "name": "tokenId",
                    "type": "uint256"
                }
            ],
            "name": "safeTransferFrom",
            "outputs": [],
            "stateMutability": "nonpayable",
            "type": "function"
        },
        {
            "inputs": [
                {
                    "internalType": "address",
                    "name": "from",
                    "type": "address"
                },
                {
                    "internalType": "address",
                    "name": "to",
                    "type": "address"
                },
                {
                    "internalType": "uint256",
                    "name": "tokenId",
                    "type": "uint256"
                },
                {
                    "internalType": "bytes",
                    "name": "_data",
                    "type": "bytes"
                }
            ],
            "name": "safeTransferFrom",
            "outputs": [],
            "stateMutability": "nonpayable",
            "type": "function"
        },
        {
            "inputs": [
                {
                    "internalType": "address",
                    "name": "operator",
                    "type": "address"
                },
                {
                    "internalType": "bool",
                    "name": "approved",
                    "type": "bool"
                }
            ],
            "name": "setApprovalForAll",
            "outputs": [],
            "stateMutability": "nonpayable",
            "type": "function"
        },
        {
            "inputs": [
                {
                    "internalType": "bytes4",
                    "name": "interfaceId",
                    "type": "bytes4"
                }
            ],
            "name": "supportsInterface",
            "outputs": [
                {
                    "internalType": "bool",
                    "name": "",
                    "type": "bool"
                }
            ],
            "stateMutability": "view",
            "type": "function"
        },
        {
            "inputs": [],
            "name": "symbol",
            "outputs": [
                {
                    "internalType": "string",
                    "name": "",
                    "type": "string"
                }
            ],
            "stateMutability": "view",
            "type": "function"
        },
        {
            "inputs": [
                {
                    "internalType": "uint256",
                    "name": "tokenId",
                    "type": "uint256"
                }
            ],
            "name": "tokenURI",
            "outputs": [
                {
                    "internalType": "string",
                    "name": "",
                    "type": "string"
                }
            ],
            "stateMutability": "view",
            "type": "function"
        },
        {
            "inputs": [
                {
                    "internalType": "address",
                    "name": "from",
                    "type": "address"
                },
                {
                    "internalType": "address",
                    "name": "to",
                    "type": "address"
                },
                {
                    "internalType": "uint256",
                    "name": "tokenId",
                    "type": "uint256"
                }
            ],
            "name": "transferFrom",
            "outputs": [],
            "stateMutability": "nonpayable",
            "type": "function"
        },
        {
            "inputs": [
                {
                    "internalType": "uint256",
                    "name": "_listingPrice",
                    "type": "uint256"
                }
            ],
            "name": "updateListingPrice",
            "outputs": [],
            "stateMutability": "payable",
            "type": "function"
        },
        {
            "inputs": [
                {
                    "internalType": "uint256",
                    "name": "tokenId",
                    "type": "uint256"
                },
                {
                    "internalType": "uint256",
                    "name": "price",
                    "type": "uint256"
                }
            ],
            "name": "updateNftPrice",
            "outputs": [],
            "stateMutability": "nonpayable",
            "type": "function"
        }
    ],
    "bytecode": "60806040526658d15e176280006009553480156200001c57600080fd5b50604080518082018252601081526f4d657461766572736520546f6b656e7360801b6020808301918252835180850190945260048452631351551560e21b9084015281519192916200007191600091620000a2565b50805162000087906001906020840190620000a2565b5050600a80546001600160a01b031916331790555062000184565b828054620000b09062000148565b90600052602060002090601f016020900481019282620000d457600085556200011f565b82601f10620000ef57805160ff19168380011785556200011f565b828001600101855582156200011f579182015b828111156200011f57825182559160200191906001019062000102565b506200012d92915062000131565b5090565b5b808211156200012d576000815560010162000132565b600181811c908216806200015d57607f821691505b6020821081036200017e57634e487b7160e01b600052602260045260246000fd5b50919050565b61234480620001946000396000f3fe6080604052600436106101355760003560e01c806370a08231116100ab578063b88d4fde1161006f578063b88d4fde14610331578063be9af53614610351578063c87b56dd14610364578063e219fc7514610384578063e52ed82e14610397578063e985e9c5146103c757600080fd5b806370a08231146102b657806372b3b620146102d657806395d89b41146102e9578063a22cb465146102fe578063ae677aa31461031e57600080fd5b806312e85585116100fd57806312e855851461020d578063202e37401461022c57806323b872dd1461024157806342842e0e1461026157806345f8fa80146102815780636352211e1461029657600080fd5b806301ffc9a71461013a57806306fdde031461016f578063081812fc14610191578063095ea7b3146101c95780630f08efe0146101eb575b600080fd5b34801561014657600080fd5b5061015a610155366004611d06565b610410565b60405190151581526020015b60405180910390f35b34801561017b57600080fd5b50610184610462565b6040516101669190611d7b565b34801561019d57600080fd5b506101b16101ac366004611d8e565b6104f4565b6040516001600160a01b039091168152602001610166565b3480156101d557600080fd5b506101e96101e4366004611dc3565b610581565b005b3480156101f757600080fd5b50610200610696565b6040516101669190611ded565b34801561021957600080fd5b506009545b604051908152602001610166565b34801561023857600080fd5b5061020061082d565b34801561024d57600080fd5b506101e961025c366004611e69565b610a01565b34801561026d57600080fd5b506101e961027c366004611e69565b610a32565b34801561028d57600080fd5b50610200610a4d565b3480156102a257600080fd5b506101b16102b1366004611d8e565b610c21565b3480156102c257600080fd5b5061021e6102d1366004611ea5565b610c98565b61021e6102e4366004611f4c565b610d1f565b3480156102f557600080fd5b50610184610d61565b34801561030a57600080fd5b506101e9610319366004611fa5565b610d70565b6101e961032c366004611d8e565b610d7f565b34801561033d57600080fd5b506101e961034c366004611fe1565b610df7565b6101e961035f366004611d8e565b610e2f565b34801561037057600080fd5b5061018461037f366004611d8e565b610f94565b6101e961039236600461205d565b61110a565b3480156103a357600080fd5b506101e96103b236600461205d565b6000918252600b602052604090912060030155565b3480156103d357600080fd5b5061015a6103e236600461207f565b6001600160a01b03918216600090815260056020908152604080832093909416825291909152205460ff1690565b60006001600160e01b031982166380ac58cd60e01b148061044157506001600160e01b03198216635b5e139f60e01b145b8061045c57506301ffc9a760e01b6001600160e01b03198316145b92915050565b606060008054610471906120b2565b80601f016020809104026020016040519081016040528092919081815260200182805461049d906120b2565b80156104ea5780601f106104bf576101008083540402835291602001916104ea565b820191906000526020600020905b8154815290600101906020018083116104cd57829003601f168201915b5050505050905090565b60006104ff82611202565b6105655760405162461bcd60e51b815260206004820152602c60248201527f4552433732313a20617070726f76656420717565727920666f72206e6f6e657860448201526b34b9ba32b73a103a37b5b2b760a11b60648201526084015b60405180910390fd5b506000908152600460205260409020546001600160a01b031690565b600061058c82610c21565b9050806001600160a01b0316836001600160a01b0316036105f95760405162461bcd60e51b815260206004820152602160248201527f4552433732313a20617070726f76616c20746f2063757272656e74206f776e656044820152603960f91b606482015260840161055c565b336001600160a01b0382161480610615575061061581336103e2565b6106875760405162461bcd60e51b815260206004820152603860248201527f4552433732313a20617070726f76652063616c6c6572206973206e6f74206f7760448201527f6e6572206e6f7220617070726f76656420666f7220616c6c0000000000000000606482015260840161055c565b610691838361121f565b505050565b606060006106a360075490565b905060006106b060085490565b6007546106bd9190612102565b90506000808267ffffffffffffffff8111156106db576106db611ec0565b60405190808252806020026020018201604052801561073457816020015b6040805160a0810182526000808252602080830182905292820181905260608201819052608082015282526000199092019101816106f95790505b50905060005b848110156108245730600b6000610752846001612119565b81526020810191909152604001600020600201546001600160a01b031603610812576000610781826001612119565b6000818152600b6020908152604091829020825160a0810184528154815260018201546001600160a01b039081169382019390935260028201549092169282019290925260038201546060820152600482015460ff1615156080820152855192935090918590879081106107f7576107f7612131565b602090810291909101015261080d600186612119565b945050505b8061081c81612147565b91505061073a565b50949350505050565b6060600061083a60075490565b905060008060005b8381101561089c5733600b600061085a846001612119565b81526020810191909152604001600020600201546001600160a01b03160361088a57610887600184612119565b92505b8061089481612147565b915050610842565b5060008267ffffffffffffffff8111156108b8576108b8611ec0565b60405190808252806020026020018201604052801561091157816020015b6040805160a0810182526000808252602080830182905292820181905260608201819052608082015282526000199092019101816108d65790505b50905060005b848110156108245733600b600061092f846001612119565b81526020810191909152604001600020600201546001600160a01b0316036109ef57600061095e826001612119565b6000818152600b6020908152604091829020825160a0810184528154815260018201546001600160a01b039081169382019390935260028201549092169282019290925260038201546060820152600482015460ff1615156080820152855192935090918590879081106109d4576109d4612131565b60209081029190910101526109ea600186612119565b945050505b806109f981612147565b915050610917565b610a0b338261128d565b610a275760405162461bcd60e51b815260040161055c90612160565b610691838383611373565b61069183838360405180602001604052806000815250610df7565b60606000610a5a60075490565b905060008060005b83811015610abc5733600b6000610a7a846001612119565b81526020810191909152604001600020600101546001600160a01b031603610aaa57610aa7600184612119565b92505b80610ab481612147565b915050610a62565b5060008267ffffffffffffffff811115610ad857610ad8611ec0565b604051908082528060200260200182016040528015610b3157816020015b6040805160a081018252600080825260208083018290529282018190526060820181905260808201528252600019909201910181610af65790505b50905060005b848110156108245733600b6000610b4f846001612119565b81526020810191909152604001600020600101546001600160a01b031603610c0f576000610b7e826001612119565b6000818152600b6020908152604091829020825160a0810184528154815260018201546001600160a01b039081169382019390935260028201549092169282019290925260038201546060820152600482015460ff161515608082015285519293509091859087908110610bf457610bf4612131565b6020908102919091010152610c0a600186612119565b945050505b80610c1981612147565b915050610b37565b6000818152600260205260408120546001600160a01b03168061045c5760405162461bcd60e51b815260206004820152602960248201527f4552433732313a206f776e657220717565727920666f72206e6f6e657869737460448201526832b73a103a37b5b2b760b91b606482015260840161055c565b60006001600160a01b038216610d035760405162461bcd60e51b815260206004820152602a60248201527f4552433732313a2062616c616e636520717565727920666f7220746865207a65604482015269726f206164647265737360b01b606482015260840161055c565b506001600160a01b031660009081526003602052604090205490565b6000610d2f600780546001019055565b6000610d3a60075490565b9050610d46338261150f565b610d508185611642565b610d5a81846116cd565b9392505050565b606060018054610471906120b2565b610d7b338383611823565b5050565b600a546001600160a01b03163314610df25760405162461bcd60e51b815260206004820152603060248201527f4f6e6c79206d61726b6574706c616365206f776e65722063616e20757064617460448201526f32903634b9ba34b73390383934b1b29760811b606482015260840161055c565b600955565b610e01338361128d565b610e1d5760405162461bcd60e51b815260040161055c90612160565b610e29848484846118f1565b50505050565b6000818152600b6020526040902060038101546001909101546001600160a01b0316348214610ec8576040805162461bcd60e51b81526020600482015260248101919091527f506c65617365207375626d6974207468652061736b696e67207072696365206960448201527f6e206f7264657220746f20636f6d706c65746520746865207075726368617365606482015260840161055c565b6000838152600b602052604090206002810180546001600160a01b0319908116331790915560048201805460ff1916600190811790915590910180549091169055610f17600880546001019055565b610f22303385611373565b600a546009546040516001600160a01b039092169181156108fc0291906000818181858888f19350505050158015610f5e573d6000803e3d6000fd5b506040516001600160a01b038216903480156108fc02916000818181858888f19350505050158015610e29573d6000803e3d6000fd5b6060610f9f82611202565b6110055760405162461bcd60e51b815260206004820152603160248201527f45524337323155524953746f726167653a2055524920717565727920666f72206044820152703737b732bc34b9ba32b73a103a37b5b2b760791b606482015260840161055c565b6000828152600660205260408120805461101e906120b2565b80601f016020809104026020016040519081016040528092919081815260200182805461104a906120b2565b80156110975780601f1061106c57610100808354040283529160200191611097565b820191906000526020600020905b81548152906001019060200180831161107a57829003601f168201915b5050505050905060006110b560408051602081019091526000815290565b905080516000036110c7575092915050565b8151156110f95780826040516020016110e19291906121b1565b60405160208183030381529060405292505050919050565b61110284611924565b949350505050565b6000828152600b60205260409020600201546001600160a01b031633146111865760405162461bcd60e51b815260206004820152602a60248201527f4f6e6c79206974656d206f776e65722063616e20706572666f726d20746869736044820152691037b832b930ba34b7b760b11b606482015260840161055c565b60095434146111a75760405162461bcd60e51b815260040161055c906121e0565b6000828152600b6020526040902060048101805460ff19169055600381018290556001810180546001600160a01b0319908116331790915560029091018054909116301790556111f760086119fb565b610d7b333084611373565b6000908152600260205260409020546001600160a01b0316151590565b600081815260046020526040902080546001600160a01b0319166001600160a01b038416908117909155819061125482610c21565b6001600160a01b03167f8c5be1e5ebec7d5bd14f71427d1e84f3dd0314c0f7b2291e5b200ac8c7c3b92560405160405180910390a45050565b600061129882611202565b6112f95760405162461bcd60e51b815260206004820152602c60248201527f4552433732313a206f70657261746f7220717565727920666f72206e6f6e657860448201526b34b9ba32b73a103a37b5b2b760a11b606482015260840161055c565b600061130483610c21565b9050806001600160a01b0316846001600160a01b0316148061133f5750836001600160a01b0316611334846104f4565b6001600160a01b0316145b8061110257506001600160a01b0380821660009081526005602090815260408083209388168352929052205460ff16611102565b826001600160a01b031661138682610c21565b6001600160a01b0316146113ea5760405162461bcd60e51b815260206004820152602560248201527f4552433732313a207472616e736665722066726f6d20696e636f72726563742060448201526437bbb732b960d91b606482015260840161055c565b6001600160a01b03821661144c5760405162461bcd60e51b8152602060048201526024808201527f4552433732313a207472616e7366657220746f20746865207a65726f206164646044820152637265737360e01b606482015260840161055c565b61145760008261121f565b6001600160a01b0383166000908152600360205260408120805460019290611480908490612102565b90915550506001600160a01b03821660009081526003602052604081208054600192906114ae908490612119565b909155505060008181526002602052604080822080546001600160a01b0319166001600160a01b0386811691821790925591518493918716917fddf252ad1be2c89b69c2b068fc378daa952ba7f163c4a11628f55a4df523b3ef91a4505050565b6001600160a01b0382166115655760405162461bcd60e51b815260206004820181905260248201527f4552433732313a206d696e7420746f20746865207a65726f2061646472657373604482015260640161055c565b61156e81611202565b156115bb5760405162461bcd60e51b815260206004820152601c60248201527f4552433732313a20746f6b656e20616c7265616479206d696e74656400000000604482015260640161055c565b6001600160a01b03821660009081526003602052604081208054600192906115e4908490612119565b909155505060008181526002602052604080822080546001600160a01b0319166001600160a01b03861690811790915590518392907fddf252ad1be2c89b69c2b068fc378daa952ba7f163c4a11628f55a4df523b3ef908290a45050565b61164b82611202565b6116ae5760405162461bcd60e51b815260206004820152602e60248201527f45524337323155524953746f726167653a2055524920736574206f66206e6f6e60448201526d32bc34b9ba32b73a103a37b5b2b760911b606482015260840161055c565b6000828152600660209081526040909120825161069192840190611c54565b6000811161171d5760405162461bcd60e51b815260206004820152601c60248201527f5072696365206d757374206265206174206c6561737420312077656900000000604482015260640161055c565b600954341461173e5760405162461bcd60e51b815260040161055c906121e0565b6040805160a08101825283815233602080830182815230848601818152606086018881526000608088018181528b8252600b909652979097209551865591516001860180546001600160a01b03199081166001600160a01b0393841617909155925160028701805490941691161790915593516003840155516004909201805460ff1916921515929092179091556117d69184611373565b604080513381523060208201529081018290526000606082015282907fb640004f1d14576d0c209e240cad0410e0d8c0c33a09375861fbadae2588a98d9060800160405180910390a25050565b816001600160a01b0316836001600160a01b0316036118845760405162461bcd60e51b815260206004820152601960248201527f4552433732313a20617070726f766520746f2063616c6c657200000000000000604482015260640161055c565b6001600160a01b03838116600081815260056020908152604080832094871680845294825291829020805460ff191686151590811790915591519182527f17307eab39ab6107e8899845ad3d59bd9653f200f220920489ca2b5937696c31910160405180910390a3505050565b6118fc848484611373565b61190884848484611a52565b610e295760405162461bcd60e51b815260040161055c90612224565b606061192f82611202565b6119935760405162461bcd60e51b815260206004820152602f60248201527f4552433732314d657461646174613a2055524920717565727920666f72206e6f60448201526e3732bc34b9ba32b73a103a37b5b2b760891b606482015260840161055c565b60006119aa60408051602081019091526000815290565b905060008151116119ca5760405180602001604052806000815250610d5a565b806119d484611b53565b6040516020016119e59291906121b1565b6040516020818303038152906040529392505050565b805480611a4a5760405162461bcd60e51b815260206004820152601b60248201527f436f756e7465723a2064656372656d656e74206f766572666c6f770000000000604482015260640161055c565b600019019055565b60006001600160a01b0384163b15611b4857604051630a85bd0160e11b81526001600160a01b0385169063150b7a0290611a96903390899088908890600401612276565b6020604051808303816000875af1925050508015611ad1575060408051601f3d908101601f19168201909252611ace918101906122b3565b60015b611b2e573d808015611aff576040519150601f19603f3d011682016040523d82523d6000602084013e611b04565b606091505b508051600003611b265760405162461bcd60e51b815260040161055c90612224565b805181602001fd5b6001600160e01b031916630a85bd0160e11b149050611102565b506001949350505050565b606081600003611b7a5750506040805180820190915260018152600360fc1b602082015290565b8160005b8115611ba45780611b8e81612147565b9150611b9d9050600a836122e6565b9150611b7e565b60008167ffffffffffffffff811115611bbf57611bbf611ec0565b6040519080825280601f01601f191660200182016040528015611be9576020820181803683370190505b5090505b841561110257611bfe600183612102565b9150611c0b600a866122fa565b611c16906030612119565b60f81b818381518110611c2b57611c2b612131565b60200101906001600160f81b031916908160001a905350611c4d600a866122e6565b9450611bed565b828054611c60906120b2565b90600052602060002090601f016020900481019282611c825760008555611cc8565b82601f10611c9b57805160ff1916838001178555611cc8565b82800160010185558215611cc8579182015b82811115611cc8578251825591602001919060010190611cad565b50611cd4929150611cd8565b5090565b5b80821115611cd45760008155600101611cd9565b6001600160e01b031981168114611d0357600080fd5b50565b600060208284031215611d1857600080fd5b8135610d5a81611ced565b60005b83811015611d3e578181015183820152602001611d26565b83811115610e295750506000910152565b60008151808452611d67816020860160208601611d23565b601f01601f19169290920160200192915050565b602081526000610d5a6020830184611d4f565b600060208284031215611da057600080fd5b5035919050565b80356001600160a01b0381168114611dbe57600080fd5b919050565b60008060408385031215611dd657600080fd5b611ddf83611da7565b946020939093013593505050565b602080825282518282018190526000919060409081850190868401855b82811015611e5c57815180518552868101516001600160a01b03908116888701528682015116868601526060808201519086015260809081015115159085015260a09093019290850190600101611e0a565b5091979650505050505050565b600080600060608486031215611e7e57600080fd5b611e8784611da7565b9250611e9560208501611da7565b9150604084013590509250925092565b600060208284031215611eb757600080fd5b610d5a82611da7565b634e487b7160e01b600052604160045260246000fd5b600067ffffffffffffffff80841115611ef157611ef1611ec0565b604051601f8501601f19908116603f01168101908282118183101715611f1957611f19611ec0565b81604052809350858152868686011115611f3257600080fd5b858560208301376000602087830101525050509392505050565b60008060408385031215611f5f57600080fd5b823567ffffffffffffffff811115611f7657600080fd5b8301601f81018513611f8757600080fd5b611f9685823560208401611ed6565b95602094909401359450505050565b60008060408385031215611fb857600080fd5b611fc183611da7565b915060208301358015158114611fd657600080fd5b809150509250929050565b60008060008060808587031215611ff757600080fd5b61200085611da7565b935061200e60208601611da7565b925060408501359150606085013567ffffffffffffffff81111561203157600080fd5b8501601f8101871361204257600080fd5b61205187823560208401611ed6565b91505092959194509250565b6000806040838503121561207057600080fd5b50508035926020909101359150565b6000806040838503121561209257600080fd5b61209b83611da7565b91506120a960208401611da7565b90509250929050565b600181811c908216806120c657607f821691505b6020821081036120e657634e487b7160e01b600052602260045260246000fd5b50919050565b634e487b7160e01b600052601160045260246000fd5b600082821015612114576121146120ec565b500390565b6000821982111561212c5761212c6120ec565b500190565b634e487b7160e01b600052603260045260246000fd5b600060018201612159576121596120ec565b5060010190565b60208082526031908201527f4552433732313a207472616e736665722063616c6c6572206973206e6f74206f6040820152701ddb995c881b9bdc88185c1c1c9bdd9959607a1b606082015260800190565b600083516121c3818460208801611d23565b8351908301906121d7818360208801611d23565b01949350505050565b60208082526024908201527f5072696365206d75737420626520657175616c20746f206c697374696e6720706040820152637269636560e01b606082015260800190565b60208082526032908201527f4552433732313a207472616e7366657220746f206e6f6e20455243373231526560408201527131b2b4bb32b91034b6b83632b6b2b73a32b960711b606082015260800190565b6001600160a01b03858116825284166020820152604081018390526080606082018190526000906122a990830184611d4f565b9695505050505050565b6000602082840312156122c557600080fd5b8151610d5a81611ced565b634e487b7160e01b600052601260045260246000fd5b6000826122f5576122f56122d0565b500490565b600082612309576123096122d0565b50069056fea2646970667358221220f8f300672e1c9ee6f25405b7b892fd3ae2810b39e46a545021d59bf19466a47c64736f6c634300080e0033",
    "sourcePath": "d:/Yura Mandzii/Course work/NFTMarketPlace/NftContractHandler/Contracts/NFTMarketplace.sol",
    "compiler": {
        "name": "solc",
        "version": "0.8.14+commit.80d49f37"
    },
    "functionHashes": {
        "approve(address,uint256)": "095ea7b3",
        "balanceOf(address)": "70a08231",
        "createMarketSale(uint256)": "be9af536",
        "createToken(string,uint256)": "72b3b620",
        "fetchItemsListed()": "45f8fa80",
        "fetchMarketItems()": "0f08efe0",
        "fetchMyNFTs()": "202e3740",
        "getApproved(uint256)": "081812fc",
        "getListingPrice()": "12e85585",
        "isApprovedForAll(address,address)": "e985e9c5",
        "name()": "06fdde03",
        "ownerOf(uint256)": "6352211e",
        "resellToken(uint256,uint256)": "e219fc75",
        "safeTransferFrom(address,address,uint256)": "42842e0e",
        "safeTransferFrom(address,address,uint256,bytes)": "b88d4fde",
        "setApprovalForAll(address,bool)": "a22cb465",
        "supportsInterface(bytes4)": "01ffc9a7",
        "symbol()": "95d89b41",
        "tokenURI(uint256)": "c87b56dd",
        "transferFrom(address,address,uint256)": "23b872dd",
        "updateListingPrice(uint256)": "ae677aa3",
        "updateNftPrice(uint256,uint256)": "e52ed82e"
    },
    "gasEstimates": {
        "creation": {
            "codeDepositCost": "1805600",
            "executionCost": "infinite",
            "totalCost": "infinite"
        },
        "external": {
            "approve(address,uint256)": "infinite",
            "balanceOf(address)": "2612",
            "createMarketSale(uint256)": "infinite",
            "createToken(string,uint256)": "infinite",
            "fetchItemsListed()": "infinite",
            "fetchMarketItems()": "infinite",
            "fetchMyNFTs()": "infinite",
            "getApproved(uint256)": "4799",
            "getListingPrice()": "2304",
            "isApprovedForAll(address,address)": "infinite",
            "name()": "infinite",
            "ownerOf(uint256)": "2689",
            "resellToken(uint256,uint256)": "infinite",
            "safeTransferFrom(address,address,uint256)": "infinite",
            "safeTransferFrom(address,address,uint256,bytes)": "infinite",
            "setApprovalForAll(address,bool)": "26772",
            "supportsInterface(bytes4)": "534",
            "symbol()": "infinite",
            "tokenURI(uint256)": "infinite",
            "transferFrom(address,address,uint256)": "infinite",
            "updateListingPrice(uint256)": "24551",
            "updateNftPrice(uint256,uint256)": "22520"
        },
        "internal": {
            "createMarketItem(uint256,uint256)": "infinite"
        }
    }
}